:020000040800F2
:1000000000400020413800088D38000859120008CF
:1000100000000000000000000000000000000000E0
:100020000000000000000000000000008D38000803
:1000300000000000000000008D3800088D38000826
:100040008D3800088D380008B9B100088D380008D7
:100050008D380008DDB1000805B200082DB2000897
:100060008D380008995000088D3800088D38000838
:100070008D3800088D3800088D380008114D0008B3
:100080008D3800088D3800088D380008914D000823
:100090008D3800088D3800088D3800088D3800082C
:1000A0008D3800088D3800088D3800088D3800081C
:1000B0008D3800088D3800088D3800088D3800080C
:1000C0005FF808F1054B01221968002801D00A43A6
:1000D00001E091430A1C1A607047C04600100240BC
:1000E000064B01211A6A8A431A621A6A04218A435A
:1000F0001A621A6A104318627047C0460010024024
:10010000044B18211A6A8A431A621A6A1043186249
:100110007047C04600100240054B0122596A002872
:1001200001D00A4301E091430A1C5A627047C0465D
:100130000010024010B5054B054A5C6822405A6029
:100140005A6811430843586010BDC0460010024071
:10015000FF7FC2FF054B1968002803D0802252049C
:100160000A4301E0024A0A401A6070470010024048
:10017000FFFFFFFE054B596B002803D0802252027F
:100180000A4301E0024A0A405A63704700100240E5
:10019000FFFFFEFF034B03215A688A431043586058
:1001A0007047C04600100240024B58680C231840AC
:1001B0007047C04600100240F8B54C4D041C6868FA
:1001C0000C23184013F09CFD1F1F1F1F1F1F1F1F14
:1001D000071F1F1F1D006E68C023B6026A68360F16
:1001E0005B0202361A4201D1414807E03F4B4148C9
:1001F000D96A0F231940013113F08CFD7043206040
:1002000004E03D4B00E03B4B236000206A683B4B21
:100210001206120F21689A5C0E1CD6406660321CD2
:100220006E687605760F9B5DDA40A2602B6BDF056A
:1002300001D4334B06E02D4B5B685E0401D45308B8
:1002400000E09308E3602B6B5F0601D42D4B01E0C7
:1002500080231B0223612B6BDE0602D4254B6361D6
:1002600000E061612F6B0323204E1F4201D1A26188
:1002700012E0376B1F40012F01D1A1610CE0376BF9
:100280001F40022F02D180231B0204E0366B334053
:10029000032B01D1174BA3612B6B144E9C46C0233B
:1002A0009B0267461F4201D1E26117E0326B1A40A0
:1002B000944680225202944501D1E1610EE0316BF7
:1002C000802219409202914202D180231B0204E055
:1002D000326B1A409A4201D1064BE3612B6B1A062E
:1002E00002D4054B236200E02062F8BD00100240FA
:1002F00000093D0000127A00006CDC0200000020C2
:10030000809FD50012800000024B1A6A10431862C9
:100310007047C04600100240054B196A002803D000
:10032000802212020A4301E0024A0A401A62704720
:1003300000100240FF7FFFFF054B196A002803D021
:10034000802252020A4301E0024A0A401A627047C0
:1003500000100240FFFFFEFF044B5A69002902D043
:100360001043586101E082435A6170470010024017
:10037000044B9A69002902D01043986101E082433E
:100380009A61704700100240044BDA69002902D0DC
:100390001043D86101E08243DA61704700100240E7
:1003A000044BDA68002902D01043D86001E0824390
:1003B000DA60704700100240044B1A69002902D02D
:1003C0001043186101E082431A6170470010024037
:1003D00041090A4A01D1136808E0012901D1136AD1
:1003E00004E0022901D1536A00E0536B1F22104040
:1003F000C340181C012210407047C0460010024044
:1004000080B582B000AF021CFB1D1A70FB1D1B786B
:10041000002B06D19023DB05181C02210BF00CF8F1
:1004200005E09023DB05181C02210BF003F8BD4604
:1004300002B080BD80B582B000AF021CFB1D1A70F7
:10044000BD4602B080BDC04680B586B000AFF86042
:100450007B603B1C0B3319703B1C0A331A703B1C2E
:1004600014333A1C0B3212781A703B1C14333A1CAA
:100470000A3212785A703B1C143300229A703A1CCC
:1004800014323B1C1033101C03211A1C03230FF0E1
:10049000AFF83B1C10339A787B681A7000235BB26C
:1004A000181CBD4606B080BD80B584B000AF786032
:1004B000081C111C1A1CFB1C1870BB1C19707B1C1F
:1004C0001A70FB1C1B78802252421343DAB23B1C89
:1004D0000C331A703B1C0C33BA1C12785A703B1C3C
:1004E0000C337A1C12789A703B1C0C33181C0321B5
:1004F0000FF046F800235BB2181CBD4604B080BD67
:1005000080B586B000AFF8607B603B1C0B33197080
:100510003B1C0A331A703B1C14333A1C0B32127802
:100520001A703B1C14333A1C0A3212785A703B1C66
:10053000143300229A703B1C14330022DA703A1CE8
:1005400014323B1C1033101C04211A1C04230FF01E
:100550004FF83B1C10339B781A1C3B1C1033DB7884
:100560001B029BB213439BB29AB27B681A80002392
:100570005BB2181CBD4606B080BDC04680B584B0D5
:1005800000AF7860081C111C1A1CFB1C1870BB1CE7
:1005900019703B1C1A80FB1C1B78802252421343AB
:1005A000DAB23B1C0C331A703B1C0C33BA1C1278A9
:1005B0005A703B1C1B88DAB23B1C0C339A703B1CF4
:1005C0001B881B0A9BB2DAB23B1C0C33DA703B1C53
:1005D0000C33181C04210EF0D3FF00235BB2181C4F
:1005E000BD4604B080BDC04680B588B000AFF8609D
:1005F0007B603B1C0B3319703B1C0A331A703B1C8D
:1006000018333A1C0B3212781A703B1C18333A1C00
:100610000A3212785A703B1C183300229A703B1C25
:1006200018330022DA703B1C183300221A713B1C6D
:10063000183300225A713A1C18323B1C1033101C1C
:1006400006211A1C06230EF0D3FF3B1C10339B78A7
:100650001A1C3B1C1033DB781B021A433B1C103363
:100660001B791B041A433B1C10335B791B061A438E
:100670007B681A6000235BB2181CBD4608B080BDC1
:1006800080B586B000AFF8607B603B1C0B331970FF
:100690003B1C0A331A703B1C0B331B7880225242DE
:1006A0001343DAB23B1C10331A703B1C10333A1C54
:1006B0000A3212785A707B68DAB23B1C10339A7097
:1006C0007B681B0ADAB23B1C1033DA707B681B0CA8
:1006D000DAB23B1C10331A717B681B0EDAB23B1C7A
:1006E00010335A713B1C1033181C06210EF048FFC2
:1006F00000235BB2181CBD4606B080BD80B586B035
:1007000000AFF8607B603B1C0B3319703B1C0A3355
:100710001A703B1C14333A1C0B3212781A703B1CB3
:1007200014333A1C0A3212785A70391C14317A6820
:100730003B1C20331B88081C02210EF0F9FF00230C
:100740005BB2181CBD4606B080BDC04680B586B001
:1007500000AFF8607B603B1C0B3319703B1C0A3305
:100760001A703B1C0B331B78802252421343DAB2BF
:100770003B1C14331A703B1C14333A1C0A32127897
:100780005A70391C14317A683B1C20331B88081CB2
:1007900002210EF06FFF00235BB2181CBD4606B0AD
:1007A00080BDC04680B586B000AFF8607B603B1C62
:1007B0000B3319703B1C0A331A703B1C0B331B782C
:1007C000802252421343DAB23B1C14331A703B1C92
:1007D00014333A1C0A3212785A70391C14317A6870
:1007E0003B1C20331B88081C02210EF043FF002312
:1007F0005BB2181CBD4606B080BDC04680B584B053
:1008000000AF786039600023FB600023BB600023E9
:10081000FB6014E0FA68131C5B009B189B003A68AD
:10082000D3187A68101C19685A689B6800F04AF857
:10083000031CBA68D318BB60FB680133FB60FA681D
:10084000131C5B009B189B003A68D3181B780C2B79
:10085000E0D1BB68DBB25BB2181CBD4604B080BD02
:1008600080B584B000AF786039600023FB6000235E
:10087000BB600023FB6014E0FA68131C5B009B184C
:100880009B003A68D3187A68101C19685A689B68EC
:1008900000F018F8031CBA68D318BB60FB6801337A
:1008A000FB60FA68131C5B009B189B003A68D31826
:1008B0001B780C2BE0D1BB68DBB25BB2181CBD46C9
:1008C00004B080BD90B589B002AFF860381C0160FB
:1008D000426083603B1C173300221A703B1C1633A6
:1008E00000221A703B1C153300221A703B1C1B7827
:1008F0000C2B00D910E19A00904BD3181B689F462F
:100900003B1C59783B1C9A783B1C1B79F868FFF715
:10091000CBFD031C1A1C3B1C17331A7005E13B1C52
:1009200059783B1C9A783B1C9B88F868FFF726FE99
:10093000031C1A1C3B1C17331A70F6E03B1C597839
:100940003B1C9A783B1C5B68F868FFF799FE031C18
:100950001A1C3B1C17331A70E7E03B1C59783B1CF0
:100960009A783B1C5B68381C007A041CF868009479
:10097000FFF7ECFE031C1A1C3B1C17331A70D4E063
:100980003B1C59783B1C9A783B1C5B681B78F868C9
:10099000FFF78AFD031C1A1C3B1C17331A70C4E0B6
:1009A0003B1C59783B1C9A783B1C5B681B88F86899
:1009B000FFF7E4FD031C1A1C3B1C17331A70B4E04C
:1009C0003B1C59783B1C9A783B1C5B68381C04899B
:1009D000F8680094FFF7E6FE031C1A1C3B1C173353
:1009E0001A70A2E03B1C5B68181C04F0BDFA9CE086
:1009F0003B1C5B68002B05D03B1C5B681B68181C0C
:100A000000F078F93B1C5B78181C00F099F98CE039
:100A10003B1C59783B1C9A78F8683B1C1533FFF750
:100A200013FD031C1A1C3B1C17331A703B1C163396
:100A300000221A704BE03B1C5B791A1C3B1C1633DE
:100A40001B781A41012313403AD03B1C1B791A1C16
:100A50003B1C16331B781A410123134012D03B1C58
:100A600016331B780122111C99400B1CDAB23B1C77
:100A700015331B78DBB21343DBB2DAB23B1C153300
:100A80001A701DE03B1C1B791A1C3B1C16331B788B
:100A90001A410123134013D13B1C16331B7801224A
:100AA000111C99400B1CDBB2DB43DBB23A1C153244
:100AB0001278D2B21340DBB2DAB23B1C15331A7093
:100AC0003B1C16331A783B1C163301321A703B1C40
:100AD00016331B78072BAED93B1C59783B1C9A78F0
:100AE0003B1C15331B78F868FFF7DEFC031CD9B2FA
:100AF0003B1C17333A1C173212788A181A7014E00C
:100B00003B1C1B79181CFFF77BFC0EE03B1C1B7980
:100B1000181CFFF78FFC08E03B1C1B78084A101CD0
:100B2000191C11F09DFE00E0C0463B1C17331B78DA
:100B30005BB2181CBD4607B090BDC04648650108B1
:100B40002C65010808B5074B984209D18020800028
:100B50000121FFF725FC802080000021FFF720FC09
:100B600008BDC046002401400B688A6810B51A43CE
:100B7000CB68C4681A430B691A434B691A43044B88
:100B8000234013430A7952031343C36010BDC04688
:100B900003D2FFFF0023036003718360C36003611E
:100BA0004361704783680122002900D10222134368
:100BB0008360704701617047054B1968002803D0B6
:100BC000802212040A4301E0024A0A401A60704778
:100BD00008270140FFFF7FFF054B1968002803D05D
:100BE0008022D2030A4301E0024A0A401A60704799
:100BF00008270140FFFFBFFF054B1968002803D0FD
:100C0000802252040A4301E0024A0A401A607047F7
:100C100008270140FFFFFFFE836A1943816242619A
:100C20007047C046826880231B0613438360F0230D
:100C30001B028268013BD20FD207002B01D0002A91
:100C4000F7D18368002B01DB006C00E000207047C7
:100C500083681022134383607047C0468368042270
:100C6000134383607047C0460123C268002901D046
:100C7000134301E09A43131CC3607047C368022208
:100C80009343C360C3681943C1607047CB0103D568
:100C90008268044B134000E003680B40591E8B41EF
:100CA000D8B27047FFFFFFFE08B511F06DFF08BD19
:100CB0001FB5802001218005FFF766FB684611F013
:100CC00087FF0023009301930293102002236946BB
:100CD000039311F065FF05B000BDC046014B1B88B2
:100CE00003807047A4090020014B1B680360704714
:100CF000A009002008B5094B984200D9181C084BE0
:100D00000A21186013F006F80303181A054913F0B6
:100D100001F880B200F008F808BDC046EFB31A0031
:100D2000A009002090D0030008B50105034B090D70
:100D30000020198011F066FF08BDC046A4090020FC
:100D400008B5011C102011F049FF08BD7047C046CE
:100D50000020704780B586B000AFB9607A603B1C58
:100D60000F33021C1A703B1C0F331B78022B11D05F
:100D700002DC012B05D01FE0032B14D0052B24D05F
:100D80001AE03B1C17330F221A703B1C163301224A
:100D90001A7023E03B1C17337F221A703B1C16335A
:100DA00001221A701AE03B1C17337F221A703B1C79
:100DB000163305221A7011E03B1C17337F221A707C
:100DC0003B1C163308221A7008E03B1C17337F22A5
:100DD0001A703B1C163340221A70C046BB68002BA9
:100DE00004D0BB683A1C173212781A707B68002B4B
:100DF00004D07B683A1C163212781A70BD4606B0D1
:100E000080BDC04680B586B000AFB9607A603B1C3B
:100E10000F33021C1A703B1C0F331B78022B11D0AE
:100E200002DC012B05D01FE0032B14D0052B24D0AE
:100E30001AE03B1C173307221A703B1C16330122A1
:100E40001A7023E03B1C17331F221A703B1C163309
:100E500001221A701AE03B1C17337F221A703B1CC8
:100E6000163301221A7011E03B1C17337F221A70CF
:100E70003B1C163301221A7008E03B1C17337F22FB
:100E80001A703B1C163308221A70C046BB68002B30
:100E900004D0BB683A1C173212781A707B68002B9A
:100EA00004D07B683A1C163212781A70BD4606B020
:100EB00080BDC04680B582B000AF0A1CFB1D011C7E
:100EC0001970BB1D1A70FB1D1B78062B08D9FB1D62
:100ED0001B785BB2002B03DBBB1D1B78402B0BD9AF
:100EE000FB1D1A78BB1D1B782249081C111C1A1CFB
:100EF00011F0B6FC002338E0FB1D1B78BA1D1278F8
:100F00005343072B01DC3F232FE0FB1D1B78BA1D49
:100F1000127853430F2B01DC3A2326E0FB1D1B788C
:100F2000BA1D127853431F2B01DC38231DE0FB1D33
:100F30001B78BA1D127853433F2B01DC372314E092
:100F4000FB1D1B78BA1D127853437F2B01DC36231F
:100F50000BE0FB1D1B78BA1D12785A43FE235B0081
:100F60009A4201DC332300E03223181CBD4602B054
:100F700080BDC0467C65010880B584B000AF021C0E
:100F8000BB1D1A803B1C0E3301221A803B1C0E3302
:100F90001B78002B02D0BB1D1B880BE0BB1D1B88E0
:100FA0001B029AB2BB1D1B881B0A9BB29BB2134348
:100FB0009BB29BB2181CBD4604B080BD80B584B006
:100FC00000AF78600A1CBB1C1A803B1C0E33012248
:100FD00052421A803B1C0833304A1A803B1C0C33A7
:100FE00000221A803B1C0A3300221A8044E03B1C7A
:100FF0000A331B887A68D3181B78191C3B1C0E33E4
:101000003A1C0E3212884A401A803B1C0C330822CC
:101010001A8025E03B1C0E331A880123134011D09F
:101020003B1C0E333A1C0E32128852081A803B1CAD
:101030000E33391C0E313A1C0832098812884A4096
:101040001A8006E03B1C0E333A1C0E3212885208FE
:101050001A803B1C0C331A883B1C0C33013A1A8053
:101060003B1C0C331B88002BD4D13B1C0A331A8841
:101070003B1C0A3301321A803A1C0A32BB1C12880C
:101080001B889A42B3D33B1C0E331B88181CFFF7F6
:1010900073FF031C181CBD4604B080BD01A0FFFFF8
:1010A00090B597B000AF0A1CFB1D011C1970BB1D49
:1010B0001A7000233B650023FB643B1C08332E4A57
:1010C00013CA13C313CA13C312681A60FB1D1B781B
:1010D000BB64BB1D1B787B647B6C7A6C53433B64A5
:1010E000BB6CBA6C5A433B1C24331A603B6CBA6C21
:1010F0005A433B1C24335A607B6CBA6C5A433B1CEA
:1011000024339A603B1C2433BA6CDA603B1C2433D2
:101110003A6C1A613B1C24337A6C5A613B1C2433B1
:1011200001229A613B1C573300221A7018E03B1CC5
:1011300057331A783B1C08339200D3583A1C573265
:1011400011783A1C243289008A585A433B6DD318CF
:101150003B653B1C57331A783B1C573301321A70DE
:101160003B1C57331B78062BE1D93B6DFB64FB6CB2
:10117000181CBD4617B090BD9C650108B0B58CB079
:1011800000AF3A611A1C3B1C173318703B1C163316
:1011900019703B1C15331A700A23FB620023BB62D3
:1011A000002200233A627B620023FB610023BB61C3
:1011B0003B1C15331A783B1C40331B78101C191C40
:1011C000FFF76EFF031CBB623B1C17331A783B1CF6
:1011D00016331B78101C191CFFF762FF031CFB6100
:1011E000FB6AFA69101C9840031CBB61B869B96AB4
:1011F00012F090FD031CBB61BB69BB600023FB6068
:101200003B693B6000237B60B868F9683A687B689B
:1012100012F0C6FE021C0B1C3A627B62FB6A1A1CAF
:10122000203A002A03DB796A0C1CD44009E0202212
:10123000D21A796A081C9040021C396A0C1CDC40E6
:1012400014437A6A151CDD40231CBB61BB69181C62
:10125000BD460CB0B0BDC04604207146084202D065
:10126000EFF3098002E0EFF30880FFE780B582B07A
:1012700000AF78607B68181C0AF0E0FFBD4602B042
:1012800080BDC04680B582B000AF78607B681B7BB4
:101290000F2B5ED89A00344BD3181B689F467B688F
:1012A0005B7B181C0BF0D0FD7B685B7B022B06D9A7
:1012B0007B685B7B0A2B02D80EF010F850E04FE001
:1012C0007B689A7BDB7B1B0213439BB2181C0BF0E1
:1012D00071FF00200BF028FF42E07B689A7BDB7BEC
:1012E0001B0213439BB2DBB2181C0BF0C9FF00209A
:1012F0000BF092FF34E07B689A7BDB7B1B0213438D
:101300009BB2DBB2181C0CF025F800200BF0EEFFAE
:1013100026E07B689A7BDB7B1B0213439BB2181C85
:101320000CF080F800200CF037F819E07B685B7B4C
:10133000002B0DD17B689A7BDB7B1B0213439BB296
:10134000DBB2181C0CF076F900200CF04FF907E026
:1013500006E0064B181C11F083FAC04600E0C046B8
:10136000BD4602B080BDC046BC650108B865010835
:1013700090B583B000AF78607B681B7B103B0C2B73
:1013800000D9D6E09A00704BD3181B689F4604F032
:10139000C9FCD5E07B681A78597809020A43997824
:1013A00009040A43DB781B0613431A1C7B68197A6D
:1013B0005B7A1B020B439BB2101C191C04F000FE4D
:1013C000002004F0C3FDBBE07B685B7B181C04F0CD
:1013D00077FE002004F040FEB2E07B681A7859786E
:1013E00009020A43997809040A43DB781B06134370
:1013F0001A1C7B68197A5B7A1B020B439BB2101C88
:10140000191C04F0FFFE002004F08EFE98E07B68BB
:101410001A78597809020A43997809040A43DB7853
:101420001B0613431A787B685A737B681A785978BD
:1014300009020A43997809040A43DB781B0613431F
:1014400001331B781A1C7B68FF2111409C7B002014
:10145000204001439973120A92B2D87B00210140C7
:101460000A43DA737B689A7BDB7B1B0213439BB2D4
:101470001B029AB27B68FF2111409C7B0020204018
:1014800001439973120A92B2D87B002101400A43AA
:10149000DA737B689A7BDB7B1B0213439AB27B680F
:1014A0001978587800020143987800040143DB78EA
:1014B0001B060B4302331B7813439AB27B68FF2150
:1014C00011409C7B0020204001439973120A92B284
:1014D000D87B002101400A43DA737B685A7B7B6822
:1014E000997BDB7B1B020B439BB2101C191C04F085
:1014F0005FFF002004F00EFF22E004F0CDFF1FE0AC
:101500007B689A7BDB7B1B0213439BB20020191C78
:1015100005F0BEF814E07B685A7B7B68997BDB7B27
:101520001B020B439BB2DBB2101C191C08F010F815
:1015300006E0064B181C11F093F9C04600E0C046C7
:10154000BD4603B090BDC046FC650108B865010802
:1015500080B582B000AF78607B681B7B203B0F2B8F
:1015600022D89A00154BD3181B689F4602F070FBD7
:1015700021E002F0D1FB002002F08AFB1BE002F028
:10158000EFFB18E07B685B7B181C02F0EDFE12E0BD
:101590007B68C022DA740EE07B68C022DA740AE04D
:1015A0007B68C022DA7406E0054B181C11F058F96C
:1015B000C04600E0C046BD4602B080BD30660108AE
:1015C000B865010880B582B000AF78607B681B7C8D
:1015D000012B08D0022B0BD0002B0ED17B68181CDE
:1015E000FFF750FE0EE07B68181CFFF7C1FE09E014
:1015F0007B68181CFFF7ACFF04E0044B181C11F0CB
:101600002FF9C046BD4602B080BDC046B86501088E
:1016100080B586B000AF00237B610DF05FFE0DF05A
:101620007BFC3B1C181C09F081FC031C7B617B6963
:10163000002B02DC0BF0DEFA03E03B1C181CFFF76A
:10164000C1FF0CF085F80DF057FEE8E780B582B0D9
:1016500000AF00237B600AE07B680C4A101C191C59
:1016600011F022FAFA239B00181C03F06FFC3B1DBB
:10167000181C0AF063FD031C002BEDD1FFF7C8FF17
:101680000023181CBD4602B080BDC046706601082C
:1016900080B582B000AF7860081C111C1A1CFB1CBE
:1016A0001870BB1C19707B1C1A70FB1C1B780C2B50
:1016B0000CD03B1C14331A783B1C18331B78013BAD
:1016C0009A4203DB3B1C18331B7833E03B1C14337A
:1016D0001A78131C5B009B189B007A68D318FA1CBD
:1016E00012781A703B1C14331A78131C5B009B1879
:1016F0009B007A68D318BA1C12785A703B1C1433BA
:101700001A78131C5B009B189B007A68D3187A1C0C
:1017100012789A703B1C14331A78131C5B009B18C8
:101720009B007A68D3183A695A603B1C14331B78C3
:101730000133DBB2181CBD4602B080BD80B582B05B
:1017400000AF7860081C111C1A1CFB1C1870BB1C15
:1017500019707B1C1A70FB1C1B780C2B0CD03B1CCB
:1017600014331A783B1C18331B78013B9A4203DB75
:101770003B1C18331B7835E03B1C14331A78131CC0
:101780005B009B189B007A68D318FA1C12781A70B9
:101790003B1C14331A78131C5B009B189B007A685F
:1017A000D318BA1C12785A703B1C14331A78131CC5
:1017B0005B009B189B007A68D3187A1C12789A7089
:1017C0003B1C14331A78131C5B009B189B007A682F
:1017D000D3183A1C103212781A713B1C14331B7840
:1017E0000133DBB2181CBD4602B080BD80B582B0AB
:1017F00000AF7860081C111C1A1CFB1C1870BB1C65
:1018000019707B1C1A70FB1C1B780C2B0CD03B1C1A
:1018100018331A783B1C1C331B78023B9A4203DDB9
:101820003B1C1C331B7841E03B1C18331A78131CFB
:101830005B009B189B007A68D318FA1C12781A7008
:101840003B1C18331A78131C5B009B189B007A68AA
:10185000D318BA1C12785A703B1C18331A78131C10
:101860005B009B189B007A68D3187A1C12789A70D8
:101870003B1C18331A78131C5B009B189B007A687A
:10188000D3183A695A603B1C18331A78131C5B0052
:101890009B189B007A68D3183A1C1432127892B2C3
:1018A0001A813B1C18331B780133DBB2181CBD4670
:1018B00002B080BD80B582B000AF78600A1CFB1C0E
:1018C0001A707B68002B04D07A68F91C22230978EF
:1018D000D154BD4602B080BD80B582B000AF786003
:1018E0007A682223D35C181CBD4602B080BDC04676
:1018F00090B585B000AF7860081C111C1A1CFB1C49
:101900001870BB1C19707B1C1A703B1C0F33002213
:101910001A703B1C0D3300221A703B1C0E33002240
:101920001A700023BB607B68002B01D1012377E094
:101930007A68F91C20230978D1547A68B91C2123CC
:101940000978D1547A6823230021D154364BB1222F
:101950009A5CB2215B5C1B0213439BB2632B08D9D8
:10196000314BB1229A5CB2215B5C1B0213439BB2E8
:1019700000E02E4B7A6893843C1C0D3401F04AFE43
:10198000031C23703B1C0E3300221A702EE03B1CFC
:101990000F3301221A701DE03B1C0D3318783B1CDD
:1019A0000F3319783B1C0E331A783B1C083301F0B7
:1019B00021F8BB6878683A1C0F3211783A1C0E3255
:1019C000127801F063FE3B1C0F331A783B1C0F3377
:1019D00001321A703B1C0F331B78042BDCD93B1CE3
:1019E0000E331A783B1C0E3301321A703B1C0E3337
:1019F0001B78032BCBD97A687B1C1B78101C191C15
:101A0000FFF758FF7B68181C362101F071FE7A68D9
:101A100027230021D1547A6868230021D152002362
:101A2000181CBD4605B090BD00F00108E20400009E
:101A300090B58BB004AFF8607A601A1C3B1C0B3376
:101A400019703B1C0A331A70FA682723D35C0122F1
:101A50005340DBB2002B1FD0FA682623D35C5BB265
:101A6000372B19DDFA6827230121D1543C1C0A3495
:101A70007B68372200923A1C0A32127801923A1C93
:101A8000283212780292181C002100221E23FFF730
:101A900055FE031C237060E0FA682723D35C002BFB
:101AA0005BD0FA682623D35C5BB2362B55DC3B1C3B
:101AB000173300221A704BE02B483B1C17331A785F
:101AC0002A49131C9B009B185B00C3185B181B78EA
:101AD000002B36D124483B1C17331A782449131C99
:101AE0009B009B185B00C3185B181B781E2B28D12A
:101AF0001D4C3B1C17331A783B1C0B3318781D49BF
:101B0000131C9B009B185B00E3181B185B181A78CA
:101B10003C1C0A347B6800923A1C0A32127801920B
:101B20003A1C283212780292181C002100221E232F
:101B3000FFF704FE031C2370FA6827230021D15409
:101B40000BE03B1C17331A783B1C173301321A7019
:101B50003B1C17331B78272BAED93B1C0A331B7851
:101B6000181CBD4607B090BD00F00108C70C00006E
:101B7000C80C0000C90C000090B58FB004AFBA606B
:101B80007B603B1C0F33021C1A703B1C0E330A1C7B
:101B90001A7000237B6200233B621023FB61102339
:101BA000BB6110237B61BB68002B1BDABB685B0049
:101BB0005B08BB603B1C0F331A783B1C0E331B7851
:101BC000101C191CFFF776F9031C3A1C0F3212780F
:101BD00053433A1C0E32127853439A00BB68D31811
:101BE0007B6204E0BB68002B01D0BB687B623C1CBD
:101BF00038347B687A6A00923A1C38321278019243
:101C00003A1C3C3212780292181C02210222502304
:101C1000FFF73EFD031C23703B1C0F331B78062B84
:101C20000AD93B1C0F331B785BB2002B04DB3B1C37
:101C30000E331B78402B0DD93B1C0F331A783B1CFD
:101C40000E331B782149081C111C1A1C10F008FEC9
:101C5000002336E03B1C0F331A783B1C0E331B78F5
:101C6000101C191CFFF726F9031C1A1CFB69D21A59
:101C7000BB69D21A7B69D31801333B613B1C0F331C
:101C80001B783A6953433A1C0E32127853439B0037
:101C90003B623C1C38347B683A6A00923A1C38320A
:101CA000127801923A1C3C3212780292181C0221DE
:101CB00002225423FFF7ECFC031C23703B1C383337
:101CC0001B78181CBD460BB090BDC046747301084C
:101CD00080B584B000AF78600023FB603B1C0B3301
:101CE00000221A7013E03B1C0B331B787A68DA4031
:101CF0000123134004D03B1C0B331B78FB600BE02B
:101D00003B1C0B331A783B1C0B3301321A703B1C03
:101D10000B331B781E2BE6D9FB68181CBD4604B09C
:101D200080BDC04690B589B004AF3B60FB1D187004
:101D3000BB1D19707B1D1A703B1C0C3300221A70DE
:101D40003B1C0F3300221A703B1C0E3300221A700A
:101D50003B1C0D3300221A700023BB603B1C0F3369
:101D60001B78012B06D03B1C0F33FA1D1278013271
:101D70001A7004E03B1C0F33FA1D12781A703B1CDA
:101D80000E331B78012B06D03B1C0E337A1D1278C4
:101D900001321A7004E03B1C0E337A1D12781A705F
:101DA000BB1D1A78012313400AD0BB1D1B78012BE1
:101DB00006D03B1C0D33BA1D127801321A7004E0B4
:101DC0003B1C0D33BA1D12781A703B1C0E331B7866
:101DD0003A1C0E3212785343181CFFF779FF041C8B
:101DE0003B1C0F331B783A1C0F3212785343181CDC
:101DF000FFF76EFF031CE41A3B1C0D331B78181C05
:101E0000FFF766FF031CE31ABB603B1C0C33BA6888
:101E10001A703C1C20343B683A1C0C321278009239
:101E20003A1C2032127801923A1C24321278029223
:101E3000181C002102224523FFF780FC031C23709D
:101E40003B1C20331B78181CBD4605B090BDC04616
:101E500090B587B004AF3A601A1CFB1D1870BB1D0B
:101E600019707B1D1A70BB1D1B78032B06D98A4B7A
:101E7000181C10F0F5FC7B1D1B7809E1FB1D1B787D
:101E80001F2B6CD004DC072B09D00F2B37D0F5E0CB
:101E90003F2B00D193E07F2B00D1C0E0EEE0BB1DD3
:101EA0001A78131C5B019B1A1E337C495A187C1D3F
:101EB0003B680092012201927A1D127802923A1C2C
:101EC000183212780392181C062102221023FFF701
:101ED0008DFC031C23707C1D3B68072200927A1D39
:101EE000127801923A1C183212780292181C0021C2
:101EF00002223823FFF722FC031C2370C6E0BB1D1F
:101F00001A78131C5B019B1A1C3364495A187C1DF8
:101F10003B680092022201927A1D127802923A1CCA
:101F2000183212780392181C062102221023FFF7A0
:101F30005DFC031C23707C1D3B680F2200927A1D00
:101F4000127801923A1C183212780292181C002161
:101F500002223823FFF7F2FB031C237096E0BB1D1F
:101F60001A78131C5B019B1A18334C495A187C1DB4
:101F70003B680092042201927A1D127802923A1C68
:101F8000183212780392181C062102221023FFF740
:101F90002DFC031C23707C1D3B681F2200927A1DC0
:101FA000127801923A1C183212780292181C002101
:101FB00002223823FFF7C2FB031C237066E0BB1D1F
:101FC0001A78131C5B019B1A103334495A187C1D74
:101FD0003B680092082201927A1D127802923A1C04
:101FE000183212780392181C062102221023FFF7E0
:101FF000FDFB031C23707C1D3B683F2200927A1D71
:10200000127801923A1C183212780292181C0021A0
:1020100002223823FFF792FB031C237036E0BB1D1E
:102020001A78131C5B019B1A1C495A187C1D3B68CB
:102030000092102201927A1D127802923A1C1832F4
:1020400012780392181C062102221023FFF7CEFB00
:10205000031C23707C1D3B687F2200927A1D12783E
:1020600001923A1C183212780292181C00210222A6
:102070003823FFF763FB031C237007E0FB1D1B786D
:10208000074A101C191C10F0EBFBC0467B1D1B7887
:10209000181CBD4603B090BD9873010870FB010881
:1020A000A873010890B587B004AF3A601A1CFB1DF5
:1020B0001870BB1D19707B1D1A70BB1D1B78032B7C
:1020C00006D98A4B181C10F0CBFB7B1D1B7809E14D
:1020D000FB1D1B781F2B6CD004DC072B09D00F2BAA
:1020E00037D0F5E03F2B00D193E07F2B00D1C0E04B
:1020F000EEE0BB1D1A78131C5B019B1A1E337C4952
:102100005A187C1D3B680092012201927A1D1278B8
:1021100002923A1C183212780392181C06210222ED
:102120002023FFF763FB031C23707C1D3B68072201
:1021300000927A1D127801923A1C1832127802929B
:10214000181C002102223923FFF7F8FA031C237020
:10215000C6E0BB1D1A78131C5B019B1A1C33644933
:102160005A187C1D3B680092022201927A1D127857
:1021700002923A1C183212780392181C062102228D
:102180002023FFF733FB031C23707C1D3B680F22C9
:1021900000927A1D127801923A1C1832127802923B
:1021A000181C002102223923FFF7C8FA031C2370F0
:1021B00096E0BB1D1A78131C5B019B1A18334C491F
:1021C0005A187C1D3B680092042201927A1D1278F5
:1021D00002923A1C183212780392181C062102222D
:1021E0002023FFF703FB031C23707C1D3B681F2289
:1021F00000927A1D127801923A1C183212780292DB
:10220000181C002102223923FFF798FA031C2370BF
:1022100066E0BB1D1A78131C5B019B1A103334490E
:102220005A187C1D3B680092082201927A1D127890
:1022300002923A1C183212780392181C06210222CC
:102240002023FFF7D3FA031C23707C1D3B683F2239
:1022500000927A1D127801923A1C1832127802927A
:10226000181C002102223923FFF768FA031C23708F
:1022700036E0BB1D1A78131C5B019B1A1C495A18C7
:102280007C1D3B680092102201927A1D1278029206
:102290003A1C183212780392181C062102222023BD
:1022A000FFF7A4FA031C23707C1D3B687F22009279
:1022B0007A1D127801923A1C183212780292181C78
:1022C000002102223923FFF739FA031C237007E0AB
:1022D000FB1D1B78074A101C191C10F0C1FAC046E0
:1022E0007B1D1B78181CBD4603B090BD9873010878
:1022F00070FB0108C0730108F0B589B004AF396004
:10230000111C1A1CFB1D1870BB1D19707B1D1A7047
:102310003B1C0F3300221A70FB1D1B78012B0BD0C6
:10232000FB1D1B78022B07D0FB1D1B78032B03D052
:10233000FB1D1B78042B05D1FB1DFA1D1278013AF9
:102340001A7062E0FB1D1B78082B0BD0FB1D1B785D
:10235000092B07D0FB1D1B780A2B03D0FB1D1B7814
:102360000B2B09D1FB1D1B78414A101C191C10F0C6
:1023700077FABB1D1B7877E0FB1D1B783D4A101CCC
:10238000191C10F06DFABB1D1B786DE03A483B1C20
:102390000F331A783949131C9B009B185B00C31834
:1023A0005B181E7834483B1C0F331A783449131CD1
:1023B0009B009B185B00C3185B181D782E4C3B1CC0
:1023C0000F331A78FB1D18782E49131C9B009B189D
:1023D0005B00E3181B185B181A78BC1D3B68009261
:1023E000BA1D127801927A1D12780292181C0021EF
:1023F000321C2B1CFFF7A2F9031C23703B1C0F336C
:102400001A783B1C0F3301321A701B483B1C0F33E8
:102410001A781A49131C9B009B185B00C3185B18A1
:102420001B78002BB2D114483B1C0F331A78144987
:10243000131C9B009B185B00C3185B181B78002BB8
:10244000A4D10D4C3B1C0F331A78FB1D18780D4995
:10245000131C9B009B185B00E3181B185B181B7870
:10246000002B93D1BB1D1B78181CBD4605B0F0BDD9
:10247000D87301081074010800F00108C70C0000AF
:10248000C80C0000C90C000080B582B000AF3960F4
:10249000111C1A1CFB1D1870BB1D19707B1D1A70B6
:1024A000044B181C10F09CFABB1D1B78181CBD4671
:1024B00002B080BD2074010880B582B000AF3960E1
:1024C000111C1A1CFB1D1870BB1D19707B1D1A7086
:1024D000044B181C10F084FABB1D1B78181CBD4659
:1024E00002B080BD2C74010890B589B004AF3A6089
:1024F0001A1CFB1D1870BB1D19707B1D1A703B1C2C
:102500000F3300221A703B1C0E3300221A703B1C42
:102510000D3300221A703B1C0C33FA1D1178012276
:102520000A401A70FB1D1A78022313405A103B1CF4
:102530000B331A703B1C0C331B78012B03D13B1C53
:102540000F330C221A703B1C0B331B78012B38D134
:102550003B1C0F333A1C0F32127807210A431A70C2
:10256000BB1D1B78022B11D002DC012B05D028E00B
:10257000032B14D0042B1BD023E03B1C0E3307226B
:102580001A703B1C0D3311221A701AE03B1C0E33DB
:1025900005221A703B1C0D3305221A7011E03B1CFA
:1025A0000E330F221A703B1C0D3311221A7008E0F3
:1025B0003B1C0E3305221A703B1C0D3305221A708A
:1025C000C0467C1D3B683A1C0F32127800927A1D7F
:1025D000127801923A1C203212780292181C0021C3
:1025E00002220F23FFF7AAF8031C23707C1D3B680F
:1025F0003A1C0E32127800927A1D127801923A1C1F
:10260000203212780292181C002102224723FFF781
:1026100095F8031C23707C1D3B683A1C0D32127820
:1026200000927A1D127801923A1C2032127802929E
:10263000181C00210F221723FFF780F8031C2370BA
:102640007B1D1B78181CBD4605B090BD90B587B0AA
:1026500004AF3A601A1CFB1D1870BB1D19707B1D5E
:102660001A70FB1D1A78BB1D1B78101C191CFEF775
:1026700021FC031C1A1C7C1D3B6800927A1D1278F9
:1026800001923A1C183212780292181C0021022280
:102690000C23FFF753F8031C23707B1D1B78181CB9
:1026A000BD4603B090BDC04690B58BB004AF786016
:1026B000081C111C1A1CFB1C1870BB1C19707B1CFD
:1026C0001A7000237B6100233B610023FB603B1CED
:1026D0000B3300221A703B1C0A3300221A70BB6AAB
:1026E0001B68002B0BD07A682223D35C0122534055
:1026F000DBB2002B03D0BB6A1B687B612EE0254B4D
:102700005A7C7968FB1C1B78381C10300090381CF0
:102710000C300190081C111C1A1C022300F0FCF85C
:102720001C4B597C3A1C0B323B1C0A33081C111CF5
:102730001A1CFEF70FFB3A693B1C0B331B78391C44
:102740000A310C78B91C0878791C09780094FEF7D6
:1027500015FD031C7B61BB6A7A691A603C1C30342E
:10276000FB6A7A6900923A1C3032127801923A1C64
:10277000343212780292181C022102223023FEF712
:1027800087FF031C23703B1C30331B78181CBD468D
:1027900007B090BD00F0010890B58BB004AF786031
:1027A000081C111C1A1CFB1C1870BB1C19707B1C0C
:1027B0001A7000237B6100233B610023FB603B1CFC
:1027C0000B3300221A703B1C0A3300221A70BB6ABA
:1027D0001B68002B0BD07A682223D35C0122534064
:1027E000DBB2002B03D0BB6A1B687B612EE0254B5C
:1027F0005A7C7968FB1C1B78381C10300090381C00
:102800000C300190081C111C1A1C022300F084F8E3
:102810001C4B597C3A1C0B323B1C0A33081C111C04
:102820001A1CFEF797FAFA683B1C0B331B78391C0D
:102830000A310C78B91C0878791C09780094FEF7E5
:102840009DFC031C7B61BB6A7A691A603C1C3034B6
:10285000FB6A7A6900923A1C3032127801923A1C73
:10286000343212780292181C022102223423FEF71D
:102870000FFF031C23703B1C30331B78181CBD4614
:1028800007B090BD00F0010890B587B002AF786046
:10289000081C111C1A1CFB1C1870BB1C19707B1C1B
:1028A0001A700123FB607968FB1C1A78BB1C1B782B
:1028B000081C111C1A1C00F0B7FE031CFB607B1CDB
:1028C00019783A1C0B323B1C0A33081C111C1A1CC9
:1028D000FEF740FA0F4B597C3A1C09323B1C083377
:1028E000081C111C1A1CFEF735FA3B1C0B33187818
:1028F0003B1C0A3319783B1C09331B783A1C0832FD
:102900001478FA680094FEF739FC031C181CBD46C5
:1029100005B090BD00F0010880B584B000AF7860CC
:10292000081C111C1A1CFB1C1870BB1C19707B1C8A
:102930001A70FA239B00FB60FB1C1B78002B0BD04A
:10294000FB1C1B78052B07D8BB1C1B78002B03D066
:10295000BB1C1B78042B0AD9FB1C1A78BB1C1B78E8
:102960002349081C111C1A1C0FF07AFF3CE07B68FD
:10297000002B07D07A682223D35C01225340DBB2BC
:10298000002B0AD0FB1C1878BB1C19787B1C1A780A
:102990003B1C083300F02EF80AE07868BB1C19785D
:1029A0007B1C1A78FB1C1B78FFF76EFF031CBB60B7
:1029B0007B68002B0CD07B689B8CFB60BB68FA6843
:1029C0005343181CFA23990011F0A4F9031CBB60AF
:1029D000BB69002B02D0BA68BB691A60FB69002B87
:1029E00002D0BA68FB691A60BD4604B080BDC0461B
:1029F0003874010880B582B000AF3B60FB1D1870D1
:102A0000BB1D19707B1D1A70FB1D1B78002B0BD092
:102A1000FB1D1B78052B07D8BB1D1B78002B03D093
:102A2000BB1D1B78042B0AD9FB1D1A78BB1D1B7814
:102A30001349081C111C1A1C0FF012FF1DE0114A4B
:102A4000FB1D1B78591EBB1D1B78013BC900CB1811
:102A5000C22189005B189B00D118C979D018007A6F
:102A600000020143D018407A00040143D3189B7A36
:102A70001B060B431A1C3B681A60BD4602B080BDA2
:102A80003874010800F0010880B584B002AF7860A6
:102A9000374B1A7C7B681A71354B597C7B685A1D01
:102AA0007B680733081C111C1A1CFEF753F9304BC6
:102AB000597C7B689A1D7B680833081C111C1A1C02
:102AC000FEF7A0F92A4AA823D25C7B685A72284AEA
:102AD000A923D25C7B689A72254AAD23D25C7B68BD
:102AE000DA72234B5A7C224B1B7C7968081C0C3011
:102AF00079681031009001910020111C1A1C0223EA
:102B0000FFF70AFF1A4AAB23D25C7B681A75184A92
:102B1000AC23D25C7B685A757B6800229A757B680F
:102B20000222DA757B68197E00220A404021494260
:102B30000A431A76597E00220A403E2149420A433E
:102B40005A76997E00220A4004210A439A76D97E59
:102B500000220A40DA76064AAF23D25C7B689A707C
:102B6000034AB023D25C7B68DA70BD4602B080BDF8
:102B700000F00108B0B58CB004AFF860B9607A60BD
:102B80001A1CFB1C1A703B1C1F3300221A70FB68B6
:102B9000BB613B1C1733BA69927D1A70BB69002B6D
:102BA00001D1FF23A8E2BB68002B03D1BB68181C2E
:102BB000FFF76AFFBB6819793C1C1F34F8687A6814
:102BC0003B1C1F331B78FD1C2D780095FEF730FF52
:102BD000031C23703B1C30331B78002B58D0BB6880
:102BE000DB7D012B28D13C1C1F347B680422009222
:102BF0003A1C1F3212780192FA1C12780292181CA9
:102C0000002100222923FEF799FD031C23703C1CA0
:102C10001F347B68882200923A1C1F32127801927E
:102C2000FA1C12780292181C00210F224F23FEF783
:102C300085FD031C23702BE0BB68DB7D002B27D1B7
:102C40003C1C1F347B68022200923A1C1F3212780F
:102C50000192FA1C12780292181C002100222923EA
:102C6000FEF76CFD031C23703C1C1F347B68822222
:102C700000923A1C1F3212780192FA1C12780292CA
:102C8000181C00210F224F23FEF758FD031C237050
:102C9000BB691A7B597B09020A43997B09040A43E1
:102CA000DB7B1B0613431A1CBB68197B587B000295
:102CB0000143987B00040143DB7B1B060B439A42D4
:102CC00010D1BB681A7B597B09020A43997B09041E
:102CD0000A43DB7B1B06134304D0FA682223D35C30
:102CE000002B19D0BB681979BB685A79BB68DB79AE
:102CF000B868051C0C353C1C1F34F86800957D68CD
:102D000001953D1C1F352D780295FD1C2D780395EE
:102D1000FFF7CAFC031C2370BB691A7C597C0902AB
:102D20000A43997C09040A43DB7C1B0613431A1CE3
:102D3000BB68197C587C00020143987C0004014365
:102D4000DB7C1B060B439A4210D1BB681A7C597C72
:102D500009020A43997C09040A43DB7C1B061343DE
:102D600004D0FA682223D35C002B19D0BB681979F0
:102D7000BB685A79BB68DB79B868051C10353C1C08
:102D80001F34F86800957D6801953D1C1F352D782E
:102D90000295FD1C2D780395FFF7FEFC031C2370A4
:102DA000BB69DA79BB68DB799A4214D0BB68DA79FF
:102DB0003C1C1F347B6800923A1C1F32127801922F
:102DC000FA1C12780292181C002102220223FEF73C
:102DD000B5FC031C2370BB691A7ABB681B7A9A4244
:102DE00014D0BB681A7A3C1C1F347B6800923A1CD2
:102DF0001F3212780192FA1C12780292181C0021DC
:102E000002220323FEF79AFC031C2370BB695A7944
:102E1000BB685B799A421ED1BB69DA79BB68DB7902
:102E20009A4218D1BB691A7E597E09020A43997EDB
:102E300009040A43DB7E1B0613431A1CBB68197E78
:102E4000587E00020143987E00040143DB7E1B068E
:102E50000B439A421DD0BB685879BB68D979BB68CF
:102E60001A7E5C7E240222439C7E24042243DB7E65
:102E70001B0613431A1C3C1C1F347B683D1C1F356A
:102E80002D780095FD1C2D780195FEF775FE031C2D
:102E90002370BB695A79BB685B799A420BD1BB69D5
:102EA000DA79BB68DB799A4205D1BB699A79BB684C
:102EB0009B799A4213D0BB685879BB68D979BB68B3
:102EC0009A793C1C1F347B683D1C1F352D7800957A
:102ED000FD1C2D780195FEF725FF031C2370BB69AF
:102EE0005A7ABB685B7A9A4205D1BB691A79BB688A
:102EF0001B799A4210D0BB68587ABB6819793C1C80
:102F00001F347A683B1C1F331B78FD1C2D780095FD
:102F1000FFF7EAFA031C2370BB695A79BB69DB79B6
:102F2000101C191CFDF7C6FF031C1C1CBB685A793A
:102F3000BB68DB79101C191CFDF7BCFF031C9C420D
:102F400010D0BB685879BB68D9793C1C1F347A68AB
:102F50003B1C1F331B78FD1C2D780095FFF776FB7B
:102F6000031C2370BB695A79BB685B799A4205D10F
:102F7000BB699A78BB689B789A4210D0BB68587935
:102F8000BB6899783C1C1F347A683B1C1F331B7844
:102F9000FD1C2D780095FEF75BFF031C2370BB69B9
:102FA0009A79BB689B799A4205D1BB69DA78BB688C
:102FB000DB789A4210D0BB689879BB68D9783C1C02
:102FC0001F347A683B1C1F331B78FD1C2D7800953D
:102FD000FFF768F8031C2370BB691A79BB681B797B
:102FE0009A420DD0BB6818793C1C1F3479683B1C91
:102FF0001F331A78FB1C1B78FFF77EF9031C237024
:10300000BB691A7DBB681B7D9A420DD0BB68187DD9
:103010003C1C1F3479683B1C1F331A78FB1C1B783F
:10302000FFF732FA031C2370BB695A7DBB685B7DD6
:103030009A420DD0BB68587D3C1C1F3479683B1CFC
:103040001F331A78FB1C1B78FFF736FA031C23701A
:10305000BB699A7ABB689B7A9A4214D0BB689A7A09
:103060003C1C1F347B6800923A1C1F32127801927C
:10307000FA1C12780292181C002102220D23FEF77E
:103080005DFB031C23703B1C1F331A78FB1C1B7851
:10309000013B9A4213DD1A4B181C0FF021FC7B6890
:1030A0000022009200220192FA1C12780292181C4F
:1030B0000C2100220023FEF741FBFF231CE0BA692C
:1030C000BB68101C191C1C220CF096FCBB693A1C36
:1030D000173212789A757B68002200923A1C1F32D0
:1030E00012780192FA1C12780292181C0C2100220C
:1030F0000023FEF723FB0023181CBD4608B0B0BD1B
:103100004C74010880B582B000AF78604D4B181C3C
:1031100006F008FB7B68002B05D14B4B181C0FF009
:103120009FFB00238AE0474B181CFE21FDF746FF5A
:10313000031C1A1C434BFE21595CFF201B5C1B0225
:103140000B439BB29A4223D1404A414B101C191C9D
:10315000FDF734FF031C1A1C3A4B3E49595C3E48AC
:103160001B5C1B020B439BB29A4211D13B4A3C4B66
:10317000101C191CFDF722FF031C1A1C314B394986
:10318000595C39481B5C1B020B439BB29A4205D029
:10319000364B181C0FF064FB00234FE0294B1A78C4
:1031A000597809020A43997809040A43DB781B0617
:1031B00013431A1C0823FF339A4215D9214B1A785E
:1031C000597809020A43997809040A43DB781B06F7
:1031D00013431A1C26490823FF33081C111C1A1C10
:1031E0000FF03EFB002329E0164B1A7859780902AC
:1031F0000A43997809040A43DB781B0613431A1C17
:1032000083235B009A4214D80E4B1A78597809022E
:103210000A43997809040A43DB781B0613431549CE
:103220000822FF32081C111C1A1C0FF019FB002386
:1032300004E07B68181CFFF727FC0F4B181CBD46E9
:1032400002B080BD00F001085874010800F10108C7
:10325000FE0A0000FE0B0000FF0B000000FC01084E
:10326000FD030000FD0F0000FE0F00008474010844
:10327000A0740108BC740108C072010880B582B056
:1032800000AF78607B68044A1A6080231B01181C19
:10329000BD4602B080BDC04670F3010880B584B061
:1032A00000AF78600A1CFB1C1A700023FB60FB1C3B
:1032B0001B78062B08D9FB1C1B78354A101C191CDF
:1032C0000FF0CEFA00235EE07B689B7D1A1CFB1C8E
:1032D00018783049131CDB009B1A1B189B005B58A5
:1032E000FB60FB68002B0CD17B689B7D1A1CFB1CD0
:1032F0001B782949081C111C1A1C0FF0B1FA002375
:1033000041E07A682123D35C01225340DBB2002BD9
:103310000FD0FB685A7C7B689A75FB689A7CD97CD5
:1033200009020A43197D09040A435B7D1B06134306
:1033300029E0FB689A7DD97D09020A43197E0904B8
:103340000A435B7E1B0613431B780C2B0CD17B6856
:103350009B7D1A1CFB1C1B781049081C111C1A1C95
:103360000FF07EFA00230EE0FB685A7C7B689A75AA
:10337000FB689A7DD97D09020A43197E09040A4334
:103380005B7E1B061343181CBD4604B080BDC046BF
:10339000D874010810000020E474010808750108C1
:1033A00080B584B000AF3A60FB1D021C1A70BB1DD3
:1033B0000A1C1A70FB1D1A78BB1D18781549131CBE
:1033C000DB009B1A1B189B005B58FB60FB68002B03
:1033D0000BD1FB1D1A78BB1D1B780F49081C111C53
:1033E0001A1C0FF03DFA07230FE0FB689A7CD97C8A
:1033F00009020A43197D09040A435B7D1B06134336
:103400001A1C3B681A60FB685B7C181CBD4604B044
:1034100080BDC046100000204075010880B586B010
:1034200000AFB9607A603B1C0F33021C1A70002396
:103430003B613B1C173300221A703B1C1633B968E2
:1034400021228A5C1A70BB689B7D3A1C0F3212786D
:103450009A4200D1CFE03B1C0F331B78012B15D9CA
:10346000BB689B7D002B11D1BA687B680120111CC1
:103470001A1CFFF7D3FF3B1C0F331978BA687B681F
:10348000081C111C1A1CFFF7C9FFB4E03B1C0F33CA
:103490001B78002B12D1BB689B7D012B0ED9BA681B
:1034A0007B680120111C1A1CFFF7B8FFBA687B6803
:1034B0000020111C1A1CFFF7B1FF9CE093E0BB68D1
:1034C0009B7D012B04D13B1C0F331B78002B08D0B4
:1034D000BB689B7D002B13D13B1C0F331B78012B4A
:1034E0000ED13B1C173301221A703B1C1633B968EE
:1034F00021228A5C1A70BA6821230021D15403E08A
:103500003B1C173300221A70BB689B7D012B0CD12A
:103510003B1C0F331B78012B07D9BA682123D35CDE
:103520007A68101C191C07F067F9BA682123D35C6C
:1035300001225340DBB2002B0BD0BB689B7D022BDA
:1035400007D13B1C0F331B78022B02D9022001F05C
:10355000FDFCBA683B1C0F331B78101C191CFFF7CD
:103560009DFE031C3B613B69002B12D0BA682123EE
:10357000D35C002B06D07A683B69101C191C06F03E
:103580005FFC0BE07A683B69101C191CFDF768F9B9
:1035900004E01A4B181C0FF063F92CE0BA682123E1
:1035A000D35C002B07D0C0467B68181C06F0E0FCFB
:1035B000031C012BF8D0BB689B7D012B04D17B68D9
:1035C000181C002107F05AF93B1C17331B78002BFD
:1035D00009D0BA68391C163121230978D1543B1C13
:1035E000173300221A70BB689B7D3A1C0F32127889
:1035F0009A4200D063E7BD4606B080BD68750108F9
:1036000080B582B000AF78607B68181CBD4602B000
:1036100080BDC04680B500AF024B5B7C181CBD4628
:1036200080BDC04600F0010880B582B000AF786070
:10363000FB1C1970BB1C1A70BB1C1B78032B13D806
:10364000FB1C1B78002B0FD0FB1C1B78042B0BD80A
:10365000BB1C1978FB1C1B785A1E7B6889008A18D2
:103660000A329200D3580AE0BB1C1A78FB1C1B7864
:103670000549081C111C1A1C0FF0F2F80023181C35
:10368000BD4602B080BDC0467C75010880B584B0DF
:1036900000AFF8607B603B1C0B3319703B1C0A3396
:1036A0001A703B1C0A331B78032B18D83B1C0B33B6
:1036B0001B78002B13D03B1C0B331B78042B0ED82C
:1036C0003B1C0A3319783B1C0B331B785A1EFB68D2
:1036D00089008A180A3292007968D15003E0034BBE
:1036E000181C0FF0BDF8BD4604B080BD94750108EC
:1036F00080B582B000AF78600A1CFB1C1A707A6833
:10370000F91C26230978D154BD4602B080BDC046BD
:1037100008B500281DD00120FCF7D4FC0120FCF7DF
:1037200057FE0028FAD08020802100024903FCF7D0
:1037300001FD0120FCF70EFD1920FCF749FE0028D1
:10374000FAD00220FCF726FDFCF72EFD0828FBD15D
:103750000EE00120FCF70EFD7120FCF739FE002879
:10376000FAD00320FCF716FDFCF71EFD0C28FBD158
:1037700008BD000008B50EF02DFF80200121400596
:10378000FCF702FE01200EF031FF0120FCF7D4FD12
:103790000020FCF7D1FD114B114AD35C5A060AD424
:1037A0000120FCF7B9FC4120FCF712FE0028FAD0FA
:1037B000802080000CE00020FCF7A2FC0120FCF738
:1037C0008FFC2120FCF704FE0028FAD08020400066
:1037D000FCF79AFD0120FCF79FFD08BD220C0000BC
:1037E00000F0010810B5041C211C0120FCF7C0FDED
:1037F000211C0120FCF7B0FD211C4020FCF7ACFD92
:103800000020FFF785FF10BD10B5041C0020FFF756
:10381000E9FF61426141013101200EF0F7FE10BD68
:1038200008B50020FFF7DEFF0EF024FF08BDC046FC
:1038300008B501200EF03CFF0120FFF7D3FF08BDC3
:103840000C488546002103E00B4B5B584350043184
:103850000A480B4B42189A42F6D30A4A02E0002368
:1038600013600432084B9A42F9D30BF049FDFDF77F
:10387000EDFEFEE700400020E49201080000002079
:103880009C090020A00900201C110020FEE7000078
:1038900008B5012002F076F9002008BD30B50D1CF6
:1038A00089B00D2846DD01AC1C220021201C0CF043
:1038B000B7F8686811F030FF2071A86811F02CFF8C
:1038C0006071E86811F028FFA071286911F024FFE9
:1038D000E071686911F020FF2072A86911F01CFFE7
:1038E0006072E86911F018FFA072286A11F014FFE5
:1038F000E060686A11F010FF2061A86A11F00CFF07
:103900002075E86A11F008FF607568461A3002F009
:10391000C7FB286B11F000FFE075686B11F0FCFE2F
:103920001C21A061201C02F06DFC012002F02AF98C
:10393000002000E0FE2040B209B030BD70B55E4608
:1039400055464C4670B4464640B401282CDD4E68BE
:103950000125301C12F0B2FA184A072180460024D3
:103960008B4691465B4663439A46CA44504612F0E2
:10397000A5FA021E424500D94246301C514612F0BB
:10398000A5FA002800D1E5B20134072CEAD1062DB2
:103990000CD86C43281C02F093FB084A0848111904
:1039A00002F000F8002002E0FE2000E0FF2040B21C
:1039B0003CBC90469946A246AB4670BDD075010806
:1039C0000476010870B50D1C88B001285CDD304B11
:1039D0009868FFF715FE061E54D0686811F09CFE2B
:1039E000C4B2002C12D12B4801F0DCFF221C231C96
:1039F000201C0221FCF758FD274B02211B780C22CA
:103A0000201CFCF751FD0CF08DF83EE0C3B2132BE7
:103A10000ADC122B0BDA0224012B0DD0002B33DD34
:103A20000B3B032B03D92FE06E3B012B2CD868688E
:103A3000013011F071FEC4B201AD1C22311C281CF2
:103A40000BF0DAFF281C1C212C7102F0DBFB211C7F
:103A5000124801F0A7FF052002F032FB02210C22E0
:103A60000D4B0020FCF7F0FC002002210C22031C6F
:103A7000FCF71AFD00200221021C0123FCF714FDB3
:103A8000002402E0FF2400E0FE2460B208B070BD14
:103A9000481000200E760108A809002016760108BB
:103AA00070B54E46454660B40C1C03282EDD4868B0
:103AB00011F032FE051CA06811F02EFE8046E06871
:103AC00011F02AFE8146206911F026FE061C052011
:103AD00002F0F6FA0020011CC0220923FCF7E4FCE6
:103AE0000020011CC5220A23FCF7DEFC2C1CB6B208
:103AF0000020E3B2011CC9224C44FCF7D5FC44452C
:103B000000DD2C1C301C01F021FAF1E702204042BC
:103B10000CBC9046994670BD80B582B000AF78600D
:103B20007B685A08124B13407A68D31A7B607B6813
:103B30009A08104B1A4079680E4B0B40D3187B60E3
:103B40007B681A097B68D2180B4B13407B607B683B
:103B50001B0A7A68D3187B607B681B0C7A68D318C1
:103B60007B607A683F231340181CBD4602B080BDBD
:103B700055555555333333330F0F0F0F80B582B082
:103B800000AF78607B685B087A6813437B607B6872
:103B90009B087A6813437B607B681B097A68134330
:103BA0007B607B681B0A7A6813437B607B681B0C15
:103BB0007A6813437B607B685B08181CFFF7ACFFD7
:103BC000031C181CBD4602B080BDC04680B582B043
:103BD00000AF786039607B68034A1A603B68032253
:103BE0001A80BD4602B080BD600F002080B584B051
:103BF00000AF78603960134BFB60134A134BD35C02
:103C00001A1C131C5B009B189B00FA68D318FB60FE
:103C10007B68FA681A600C4A0C4BD35C0133D9B24A
:103C2000094A0A4BD154084A084BD25C032313407B
:103C3000D9B2054A054BD1543B680C221A80BD46C7
:103C400004B080BD680F0020B00A0020B504000059
:103C500080B500AF022000F087FB09F031FC0023A3
:103C6000181CBD4680BDC04680B500AFBD4680BDB6
:103C700080B500AF044A054BD25C01231340DBB290
:103C8000181CBD4680BDC046B00A0020B404000028
:103C900080B582B000AF021CFB1D1A70FB1D1B78A3
:103CA000002B09D00A4A0B4BD35C01221343D9B233
:103CB000074A084BD15408E0054A064BD35C012261
:103CC0009343D9B2024A034BD154BD4602B080BDE2
:103CD000B00A0020B404000080B584B000AFF860E2
:103CE000B9607A60094A9623DB00D25CFB681A70DF
:103CF000064A074BD25CBB681A70044A054BD25C7B
:103D00007B681A70BD4604B080BDC046B00A002072
:103D1000B1040000B204000080B500AF0D4A962344
:103D2000DB00D35C00200D210122FCF7BDFB094A1A
:103D3000094BD35C00200D210222FCF7B5FB054A9C
:103D4000064BD35C00200D210322FCF7ADFBBD46E2
:103D500080BDC046B00A0020B1040000B2040000DB
:103D600080B584B002AF1D4B7B601D4A1D4BD35CF8
:103D70001A1C131C5B009B189B007A68D3187B608D
:103D8000174A184BD35C0133D9B2154A154BD1549D
:103D9000134A144BD25C03231340D9B2104A114B7F
:103DA000D1547B6805337A68053212787F218A43C3
:103DB000D2B21A707B680A3300221A707B680B3308
:103DC00000221A707B680C22009200200D21042230
:103DD000FCF7BCFCBD4602B080BDC046680F0020A9
:103DE000B00A0020B604000080B584B000AF3B1CD0
:103DF000083300221A803B1C0F3300221A70FB1D6F
:103E000000221A703B1C0C33012252421A803B1CC8
:103E10000A33012252421A80BB1D00221A707B1DF8
:103E200000221A70844A854B0121D154FA1D3B1C93
:103E30000833101C191C02F091FA3B1C0C333A1C7D
:103E40000C32128810218A431A803B1C0C333A1C16
:103E50000C32128801218A431A803B1C0C333A1C15
:103E60000C321188764A0A401A803B1C0F333A1CE8
:103E70000F32127801218A431A703B1C0F333A1C0F
:103E80000F32127808218A431A703B1C0F333A1CF8
:103E90000F32127806210A431A703B1C0F333A1C6A
:103EA0000F32127810210A431A70FA1D3B1C083396
:103EB000101C191C02F052FA7B1D002002210D2259
:103EC000FCF7C2FAFB1D1B781A1C082313400FD005
:103ED0003B1C0C333A1C0C3211885A4A0A401A8097
:103EE0003B1C0F333A1C0F32127808210A431A7018
:103EF000FB1D1B781A1C012313400FD03B1C0C33F5
:103F00003A1C0C32128820218A431A803B1C0F3342
:103F10003A1C0F32127801210A431A707B1D1B785C
:103F20001A1C0423134007D03B1C0C333A1C0C32E0
:103F30001188454A0A401A807B1D1B781A1C0223EF
:103F4000134007D03B1C0C333A1C0C3211883F4AFB
:103F50000A401A8000200D2100220023FCF7A4FA59
:103F6000BB1D00200B212122FCF76EFABB1D1B7824
:103F700010229343DBB200200B212122FCF794FA9C
:103F80003B1C0F331B78002002210E22FCF78CFA19
:103F9000BB1D1B7810221343DBB200200B21212212
:103FA000FCF782FA3B1C0C333A1C0C321188244A71
:103FB0000A401A803B1C0C331B8800200F21022270
:103FC000FCF7DCFA3B1C0A333A1C0A3211881E4A01
:103FD0000A401A803B1C0A331B8800200F21042250
:103FE000FCF7CCFA0020032108220123FCF75CFA3D
:103FF000174B00200F210A22FCF7C0FA00200F21E6
:104000000A220023FCF7BAFA114B00200F210C22E0
:10401000FCF7B4FA642000F0A7FF00200F210C2267
:104020000023FCF7ABFA00200D2100220323FCF74C
:104030003BFABD4604B080BDB00A0020B3040000C6
:10404000FFDFFFFFFFFBFFFFFFF7FFFFFFBFFFFFEC
:10405000FFFF000080B586B002AF3B1C0833002292
:104060001A703B1C083300225A703B1C0833002294
:104070009A703B1C08330022DA703B1C0E3300227E
:104080001A80BB1D00221A807C4A7D4BD35C022B18
:104090000DD17C4B0020191C07F0A6FA7A4B181C96
:1040A0000EF05EFC202009F051FA0023E2E0734A92
:1040B000734BD35C002B01D10023DBE03B1C0833A6
:1040C0000422009200200E210522FCF717FB3B1C66
:1040D0000833DB781A1C0823134008D06B4B181CDC
:1040E0000EF07EFC8023DB00181C09F02FFA3B1C2D
:1040F00008339B78191C3B1C0833DB781A1C3B1CCB
:104100000E338A181A803B1C0E331B88002B1AD0E2
:10411000642000F029FF3B1C0833DB781B029AB2B5
:104120003B1C08339B7813439BB200200F210C22C9
:10413000FCF724FA642000F017FF00200F210C2266
:104140000023FCF71BFA3B1C08335B781A1C202366
:10415000134008D04E4B181C0EF042FC80239B00ED
:10416000181C09F0F3F93B1C08331B78BA1D101C0E
:10417000191C02F047FD031C002B0FD0BB1D1B8830
:10418000002B0BD0BB1D1B88424A101C191C0EF0C3
:1041900027FCBB1D1B88181C09F0D8F93B1C0833F1
:1041A0001A783B1C08335B78B91D081C111C1A1CBB
:1041B00004F090FE031C002B10D0BB1D1B88002BAD
:1041C0002ED0BB1D1B88334A101C191C0EF008FC96
:1041D000BB1D1B88181C09F0B9F921E03B1C0833F2
:1041E0005A7840231340DBB2002B08D03B1C083325
:1041F0005B7840229343DAB23B1C08335A703B1C75
:1042000008335A7808231340DBB2002B08D03B1C3C
:1042100008335B7808229343DAB23B1C08335A70A8
:104220003B1C08331B78191C3B1C08335B781A1C99
:104230003B1C0E338A181A803B1C0E331B88002B44
:1042400017D00A2000F090FE3B1C08335B781B025D
:104250009AB23B1C08331B7813439BB200200F21FA
:104260000A22FCF78BF900200F210A220023FCF719
:1042700085F90123181CBD4604B080BDB00A00209A
:10428000B3040000F1FF0000287601083076010831
:10429000407601085476010880B500AF00200D215A
:1042A00000220023FCF700F9194A1A4B0021D154CF
:1042B0000020022100220023FCF7F6F8164B002014
:1042C0000F210A22FCF75AF900200F210A220023AD
:1042D000FCF754F9104B00200F210C22FCF74EF98B
:1042E000642000F041FE00200F210C220023FCF787
:1042F00045F90020032107220123FCF7D5F800200F
:10430000032108220123FCF7CFF8BD4680BDC0463B
:10431000B00A0020B3040000FFFF000080B582B0A7
:1043200000AF78607B681B78012B02D0022B0AD08B
:1043300012E00B4A0B4BD35C012B03D17B68FF22AD
:104340001A7009E008E0064A064BD35C012B02D044
:104350007B68FF221A70C046BD4602B080BDC046D1
:10436000B00A0020B304000080B582B000AF021C88
:10437000FB1D1A70FB1D1B78012B02D0022B0CD0E9
:1043800015E0FFF731FD0B4B181C0EF029FB8023C5
:104390005B00181C09F0DAF809E0074A074BD35C08
:1043A000002B03D0044A054B0221D154C046BD4620
:1043B00002B080BD5C760108B00A0020B3040000A2
:1043C00080B500AF064A074BD35C002B06D0FFF741
:1043D00041FE031C002B01D1FFF75EFFBD4680BDEF
:1043E000B00A0020B304000080B588B000AF021C02
:1043F000FB1D1A704B4A4C4B0121D154FB1D1B78FD
:10440000212B00DA8AE0222B02DD232B4AD085E023
:10441000391C14313B1C14335A1C3B1C143302331B
:10442000081C111C1A1CFFF757FC3B1C1033002002
:104430000D210122FCF708F83B1C1033013300204A
:104440000D210222FCF700F83B1C10330233002040
:104450000D210322FBF7F8FF3B1C1E3300221A80BC
:1044600019E03B1C1E331B883A1C1032D25C3B1CEB
:104470001E331B88391C1431CB5C9A4204D0294A64
:10448000294B0021D1540BE03B1C1E331A883B1CE6
:104490001E3301321A803B1C1E331B88012BE0D9CE
:1044A000C0463CE0214BBB611E4A214BD35C1A1C29
:1044B000131C5B009B189B00BA69D318BB613B1CA3
:1044C0001C3300221A8022E03B1C1C331B88DBB209
:1044D0000433DAB23B1C0F3300200D21FBF7B4FF8D
:1044E0003B1C1C331B88BA69D3181A783B1C0F334A
:1044F0001B789A4204D00B4A0B4B0021D1540BE09D
:104500003B1C1C331A883B1C1C3301321A803B1C99
:104510001C331B880B2BD7D9C04600E0C046BD46D4
:1045200008B080BDB00A00209A040000680F002087
:10453000B504000070B55E4655464C4670B446461C
:1045400040B484B01D1C0CAB1B78041C9B460DAB07
:104550001B7802A89A460EAB1B780E1C01930FAB7A
:104560001B789146984606F045FF6A465B46937372
:1045700053465373019B201C02A902961573D373F3
:1045800006F0F0FE022D05D1201C4946424606F0F9
:1045900055FF05E0012D03D1201C311C06F04AFF18
:1045A00004B03CBC90469946A246AB4670BD0000A4
:1045B00013B5FC246846E40306F01CFF201C01210F
:1045C000FBF7CAFE90206946C00506F0CBFE69469F
:1045D0000B4806F0C7FE69460A4806F0C3FE694666
:1045E000094806F0BFFE6946084806F0BBFE69466A
:1045F000074806F0B7FE201C0021FBF7ADFE13BDF7
:104600000004004800080048000C00480010004862
:10461000001400487FB5802080020121002403257A
:10462000FBF79AFE9020C0050121221C231C009458
:10463000019502940394FFF77DFF01229020131C43
:10464000C00502210094019502940394FFF772FFC4
:10465000012602229020131C0396C0050421009419
:1046600001950294FFF766FF90200396C00508218C
:104670002A1C0223009401950294FFF75BFF90200F
:10468000C005202105222B1C00940195029403945F
:10469000FFF750FF9020C005402106222B1C0094FC
:1046A000019502940394FFF745FF9020C0058021F7
:1046B00007222B1C0094019502940394FFF73AFF04
:1046C00090208021331CC005A9400A220094019546
:1046D00002940394FFF72EFF902080210F220223E3
:1046E000C00509020094019502940394FFF722FF8C
:1046F0008020311CC002FBF72FFE524808212A1CE3
:1047000002230094019502940394FFF713FF4D4890
:104710001021042202230094019502940394FFF7D0
:1047200009FF052202230094019502940394454851
:104730002021FFF7FFFE444A13783340161CA342A2
:1047400008D000940195029403943E48402106222B
:10475000022306E03B480093019502930393402116
:104760000622FFF7E7FE3278012313400322002BD5
:1047700009D00023009301920293039331488021D2
:104780000722022306E02F4801920093029303932D
:10479000802107220024FFF7CDFE0325802101950B
:1047A0000094029403942748890009220123FFF70B
:1047B000C1FE8021A9400195231C0094029403941A
:1047C00020480A22FFF7B6FE80210195231C0094A1
:1047D000029403941B4809010B22FFF7ABFE8021D2
:1047E0000195009402940394164889010D22022336
:1047F000FFF7A0FE802101950094029403941148D4
:10480000C9010E220223FFF795FE802101950F2298
:1048100002230094029403940A480902FFF78AFED7
:10482000802000030121FBF797FD80210195009472
:1048300002940394054889010D22231CFFF77AFE98
:104840007FBDC04600040048111000200008004849
:104850007FB5002403250095019402944120211C7A
:10486000221C231C00F01AF9012100950A1C019456
:1048700002944120231C00F011F901260221009529
:1048800002960A1C01944120231C00F007F9291C00
:1048900000950296019441200222231C00F0FEF8AC
:1048A0002A1C00950194029441200521231C00F04C
:1048B000F5F82A1C00950194029441200621231C3E
:1048C00000F0ECF82A1C0095019402944120072185
:1048D000231C00F0E3F8321C00950194029441205F
:1048E0000A21231C00F0DAF800950194029441207B
:1048F0000F210222231C00F0D1F8291C00950194FD
:10490000029442200222231C00F0C8F80095019472
:104910000294422004210222231C00F0BFF80095DB
:1049200001940294422005210222231C00F0B6F8D3
:1049300000950194029442200621221C231C00F0C1
:10494000ADF800950194029442200721221C231CFB
:1049500000F0A4F8321C0095019402944220092131
:10496000231C00F09BF800950194029442200A2138
:10497000221C231C00F092F800950194029442201E
:104980000B21221C231C00F089F80095019402944D
:1049900042200D210222231C00F080F80095019492
:1049A000029442200E210222231C00F077F8009589
:1049B0000194029442200F210222231C00F06EF881
:1049C00000950194029443200D21221C231C00F029
:1049D00065F87FBD73B5FC20C0030121FBF7BCFC6B
:1049E00090246A46032313715371E4051A4B002582
:1049F000201C69468026D5710093B60006F0B2FCF3
:104A0000201C022106F018FD311C201C134C06F05E
:104A100013FD134B201C6946009306F0A3FC311CC8
:104A2000201C06F009FD0F4B69460F48009306F065
:104A300099FC69460D4806F095FC69460C4806F05D
:104A400091FC69460B4806F08DFCF020291CC00340
:104A5000FBF782FC73BDC046F07D000000040048F7
:104A6000FFFD0000FFFF000000080048000C0048A8
:104A7000001000480014004810B59024E40580217F
:104A8000201C890006F0D6FC034800F06DFA201CBB
:104A9000022106F0CFFC10BD8813000078B5564601
:104AA0004D46444670B49A4608AB1B7884469946F6
:104AB00009AB1E780AAB0D1C1B78141C21486146FB
:104AC0002A1C98460DF04CFF002C05D0012C05D077
:104AD000022C05D11C4904E01C4902E01C4900E0FD
:104AE0001C491D4D281C0DF03BFF5346002B01D1E6
:104AF0001A4900E01A49281C0DF032FF4B46002BE2
:104B000003D0012B03D1174902E0174900E01749F0
:104B1000281C0DF025FF002E03D0012E03D11449CF
:104B200002E0144900E01449281C0DF019FF022C82
:104B300003D1124841460DF013FF1CBC9046994624
:104B4000A24678BDAC7601087A7601087076010835
:104B50007676010873760108FC7F01087D760108EE
:104B60008076010894760108837601088B76010827
:104B7000A97601089D760108A4760108BF76010890
:104B80000268204B1340036000230360436083608E
:104B9000C3601D4B984203D11C4B0F215A682DE076
:104BA0001B4B984203D1194BF0215A6826E0194B50
:104BB000984204D1154BF022596812011EE0164BA1
:104BC000984204D1114BF0225968120216E0134B9F
:104BD000984204D10D4BF022596812030EE0104B9D
:104BE000984204D1094BF0225968120406E00D4B9B
:104BF000984205D1054BF022596812050A435A60C4
:104C00007047C046FEFF000008000240000002405E
:104C10001C000240300002404400024058000240A4
:104C20006C0002408000024002680D4B10B51A4033
:104C30008C680B6A23430C6923434C6923438C69BA
:104C40002343CC6923434C6A23438C6A2343134395
:104C50000360CB6843600C6884604B68C36010BD20
:104C60000F80FFFF002903D003680122134302E0F5
:104C70000268024B134003607047C046FEFF00000D
:104C80000368002A02D01943016001E08B430360EE
:104C90007047C046034B1B681840431E9841C0B282
:104CA0007047C04600000240014B58607047C04644
:104CB00000000240034B1B681840431E9841C0B2DD
:104CC0007047C04600000240014B58607047C04624
:104CD0000000024030B58025ED0585B0281C09F0A4
:104CE00015FE012001AC011CFBF74EFB201C09F056
:104CF000BDFE302323801023638001236360281CC2
:104D00000023211C238109F075FE05B030BDC0468B
:104D1000802008B5C005012109F038FF002804D023
:104D20008020C005012109F03DFF08BD30B585B0E8
:104D3000002802D03025454300E0134D00211348E0
:104D400009F0A4FE114801AC09F0E0FD01210220A8
:104D5000FBF71AFB201C09F089FEFA239B00238035
:104D600080239B002381211C002308486380656009
:104D700009F040FE0548202109F018FF03480121F1
:104D800009F084FE05B030BD80BB00000004004087
:104D900030B521488BB0022109F0F8FE002838D048
:104DA0001D48022109F0FEFE1C4C2368251C002B27
:104DB00007D1194809F0A4FE194B1860012323609C
:104DC00027E0012B25D1144809F09AFE154C00224A
:104DD00020600221104809F0C5FE114B22681B68B3
:104DE000114C9A4201D811495218D31A236001A8D4
:104DF00002232B60FBF7E0F90020031C03992268D3
:104E00000FF0AEF80A4D430FC9001943C0006960A6
:104E100028600BB030BDC04600200040AC09002027
:104E2000B4090020B8090020B0090020FFFF0000ED
:104E30002801002070B5464640B42D4C85B0201C9A
:104E4000002109F023FE201C09F060FD80204000B5
:104E50000121FBF799FA201C0122002109F010FE24
:104E6000201C012109F0ACFE002501A901260C221D
:104E7000201CCA800D804D808E800D8109F012FEAD
:104E80006A46132368461370557096700DF04CFEF9
:104E9000184B201C1D609846174B311C1D6009F0F3
:104EA000F5FD2582201C0221321C09F05BFE4446E0
:104EB0002368022B03D0C82000F056F8F8E70C480E
:104EC00009F024FD0A48002109F0E0FD80200021BE
:104ED0004000FBF759FA6A46002393706846132393
:104EE00013700DF021FE05B004BC904670BDC046A5
:104EF00000200040AC090020B009002038B5802413
:104F0000E405051C0121201C09F03CFE291C201C85
:104F100009F0BAFD201C012109F0B8FD38BDC046DA
:104F20008020012108B5C00509F026FE01210028D6
:104F300009D08020C00509F025FE80200021C00591
:104F400009F0A4FD0021081C08BDC04608B50028D2
:104F500008D0FA239B005843FFF7D0FFFFF7E0FF8C
:104F60000028FBD108BDC04608B5002805D0FFF7D2
:104F7000C5FFFFF7D5FF0028FBD108BD08B5FFF737
:104F8000A9FE0020FFF7D2FE08BDC04608B50248C2
:104F9000FBF7D8FD08BDC0460024014070B5394D6F
:104FA00092B0281CFBF7CEFD802080000121FBF78A
:104FB000DFF9802101AE281CC905FBF7FBFD301C81
:104FC0000024FBF7E7FD311C281C01943471B46008
:104FD00034617461FBF7C8FD0120FBF7EDFD012092
:104FE000FBF7FAFD201CFBF707FE281C1021072207
:104FF000FBF712FE281C40210722FBF70DFE802143
:10500000281C49020722FBF707FE80210722281CE3
:105010008902FBF701FE281CFBF704FE281C022175
:10502000FBF72CFE184B194D0793194B281C0893BE
:1050300004230A9380230C935B000D938023DB00F1
:105040000E9320230F9380235B0107A910930994EB
:105050000B941194FFF7E8FD281C01220221FFF7B1
:105060000FFE281C211CFFF7FDFD6A4601239370EB
:1050700068460923137054700DF056FD054B1C70E3
:1050800012B070BD002401404024014008000240DD
:10509000BC090020C409002008B50220FFF70AFE61
:1050A000002805D00120FFF70FFE024B01221A70E5
:1050B00008BDC046C409002010B5084C201CFBF7F1
:1050C000B1FD201C0121FBF76DFD201C0121FBF728
:1050D000CBFD03480121FFF7C5FD10BD00240140B1
:1050E0000800024070B54E46454660B4394C002376
:1050F00082B001932370FFF751FFFFF7DDFF3648C1
:105100000121FBF7C3FD0028F9D03348FBF7A6FDCA
:105110002378324A0199013101910199914201D8D4
:10512000002BF7D02378002B3CD02D4B18880FF0A4
:105130000FFE2C4D061CE8880005000D0FF0ACFD9D
:10514000011C301C0FF008F927490FF0E3FA0EF0AC
:1051500049FF264B061C1860254BFA201B88A52109
:105160009846AB88490058430EF0D4FD4346C31A15
:105170009946204B204819884346C91A0EF018FE5C
:105180004B4658431D4B1E49C0181E4B186068887B
:105190000005000D70430EF0BDFD1B4B1B4A18604F
:1051A0001B4B1A600C48FBF753FD1A480021FFF710
:1051B00059FD09480021FBF757FD07480021FBF77F
:1051C000F1FCFFF7E3FE0023237002B00CBC904615
:1051D000994670BDC409002000240140E703000087
:1051E000BAF7FF1FBC0900200022A148D009002007
:1051F000B8F7FF1FC2F7FF1F80380100F05500000D
:10520000FF0F0000D4090020C8090020801A060002
:10521000CC0900200800024080B500AF174B1B6886
:10522000002B08D0FA235B00181C082107F01AF99C
:10523000124B00221A60124B1B68181C05F022FE4C
:105240000F4B00221A600F4B181C00210C220AF091
:10525000E7FB0D4B0D4A1A600D4B03221A600D4BF4
:105260000D4A1A600D4B03221A60074B1B6800227F
:105270001A70044B00221A70BD4680BDE809002058
:10528000EC090020DC090020DC000020E0090020FF
:10529000D4000020E0000020E4090020D800002015
:1052A00080B588B000AF00237B603B1C1F33A44A4D
:1052B00012781A703B1C1F331B78042B05DC032B60
:1052C00000DBDCE0002B04D0FEE0FF2B00D1F0E09F
:1052D000FAE09C4B9C4A1A609C4B03221A609C4B40
:1052E0009C4A1A609C4B03221A60954BFF221A704D
:1052F000974B1B68994A101C191C0CF03BFA914BF8
:105300001B68974A101C191C0CF034FA904B1B6850
:105310001B78002B07D1934B0020191C0CF050FA7E
:10532000FFF77AFF09E1904B01221A608F4B0022B0
:105330001A603B1D181C05F05FFE7B68002B0FDC1C
:105340008B4B0020191C0CF03BFA7E4B1A68804BEB
:105350001B681B78802149420B43DBB213708DE040
:105360007B4B1B683A1C0832101C191C05F076FC9C
:10537000031C002B00D076E03B1C08330020191CD6
:1053800005F044FD3B1C08335A7C6D4B1A706D4B85
:105390001A686F4B1B6819783B1C0833DB7C0B4386
:1053A000DBB213703B1C0833DB7C402B66D16F4BA8
:1053B000704A1A606D4B1A683B1C0833101C191C8C
:1053C00014220AF019FB3B1C08335B7C032B1BD017
:1053D000042B25D0022B00D044E03B1C08335A6834
:1053E000584B1A603B1C08335B891A1C574B1A60D8
:1053F000544B1A68564B1B6819783B1C0833DB7CEE
:105400000B43DBB213702DE03B1C08331A68504B82
:105410001A603B1C08331B891A1C4F4B1A6021E091
:105420003B1C08335A68474B1A603B1C08335B89A6
:105430001A1C464B1A603B1C08331A68444B1A600E
:105440003B1C08331B891A1C434B1A603D4B1A68DE
:105450003F4B1B6819783B1C0833DB7C0B43DBB2EA
:105460001370C0460AE0374B1A68394B1B681B782B
:10547000402149420B43DBB213705EE05DE03B1C10
:105480001F331B783C4A0320111C1A1C0CF098F99E
:105490002F4B1B68394A101C191C0CF06BF9294B57
:1054A0001B68374A101C191C0CF064F9FFF7B4FE96
:1054B00043E0344B0320191C0CF082F92B4B0022E3
:1054C0001A60FFF7A9FE38E0214B1B682E4A101C1A
:1054D000191C0CF04FF91B4B1B682C4A101C191C93
:1054E0000CF048F91A4B1B681B78002B0BD1184B9A
:1054F0001B6801331B78002B05D1154B1B68023349
:105500001B78002B0DD0224B0020191C0CF058F9F1
:10551000164B00221A60FFF77FFE094BFF221A701C
:105520000BE03B1C1F331B78134A0320111C1A1C71
:105530000CF046F9FFF770FEC046BD4608B080BDCE
:10554000DC090020DC000020E0090020D40000205D
:10555000E0000020E4090020D8000020D0760108F7
:10556000D8760108E0760108E8090020EC0900205F
:10557000F8760108F0090020087701081077010883
:10558000187701082077010828770108307701088B
:105590003877010810B50D4B041C1B78DA0707D5C6
:1055A0000B48802109F0AAF90028F9D0084808E042
:1055B0009A0709D50748802109F0A0F90028F9D0F9
:1055C0000448211C09F092F910BDC04611100020BA
:1055D0000038014000440040017001207047C0467F
:1055E0000023CA5C002A02D0C2540133F9E7181C18
:1055F0007047C04678B556464D46444670B48A4614
:10560000061C9946551E092B01D8041C0CE0181CD9
:105610000A210EF07FFB5146031C2A1C301CFFF7A9
:10562000E9FF804634180AE0A31B9846002D06DDEA
:10563000201C5146FFF7D0FF0134013DF4E74846F6
:105640000A210EF0ABFB3031C9B2201CFFF7C4FFBA
:1056500040441CBC90469946A24678BD70B555465C
:105660005E464C4670B48A46D91799465B18464642
:105670004B4040B49846061C551E092B13D94B4687
:1056800040460A21002B03DA0EF044FB434202E0BD
:105690000EF040FB031C2A1C301C5146FFF7DEFFB6
:1056A000041C35181CE04946002900DA951E7319C0
:1056B0002C1C9B465946081B002C04DD5146FFF765
:1056C0008BFF013CF6E7EC43E4172C404B463519C1
:1056D000002B05DA281C2D21FFF77EFF0135241849
:1056E00040460A210EF05AFB3031281CC9B2FFF7A0
:1056F00073FF20183CBC90469946A246AB4670BD4D
:1057000078B556464D46444670B48A46061C9946BE
:10571000551E092B01D8041C0CE0181C0A210EF0A0
:10572000F9FA5146031C2A1C301CFFF7E9FF80469A
:1057300034180AE0A31B9846002D06DD201C5146B4
:10574000FFF74AFF0134013DF4E748460A210EF015
:1057500025FB3031C9B2201CFFF73EFF40441CBC82
:1057600090469946A24678BD70B55E4655464C4671
:1057700070B483B0551E0A9A9A46061C8B461309CC
:1057800001D1041C07E000932A1C5346FFF7ECFFED
:10579000814634180AE0A31B9946002D06DD201C23
:1057A0005946FFF719FF0134013DF4E70A9E0F2324
:1057B0001E40092E02D8311C303107E05246002A23
:1057C00002D0311C373101E05736F1B2201CFFF70F
:1057D00003FF4846013003B01CBC91469A46A346DD
:1057E00070BDC04670B54D464446564670B40F393C
:1057F00083B0041C894601D0002101700A200026D4
:1058000082461178002905D14E4500D383E000235C
:1058100023709CE04E45F7D2252902D00132217039
:1058200004E05178252904D1217002320136013477
:10583000E7E7302903D001329046202101E002320F
:105840009046404602782E2A02D101218844302118
:10585000002240460578281C3038C0B2092808D8F4
:1058600050464243AA18D2B2303A0120D2B2804404
:10587000EFE7B018484502D94846821BD2B2692DDD
:105880001ED00AD8582D2DD002D8502D2AD060E035
:10589000632D35D0642D13D05BE0732D2AD004D84E
:1058A0006C2D07D0702D17D053E0752D0ED0782DAC
:1058B00012D04EE01D1D201C1B68FFF721FF24E0C5
:1058C0001D1D201C1B68FFF7C9FE1EE01D1D201CAE
:1058D0001B68FFF78FFE18E01D1D1B68201C00933E
:1058E000002304E01D1D1B68201C00930123FFF70B
:1058F0003BFF0AE01968201C1D1DFFF771FE04E044
:105900001978201C1D1DFFF767FE42462B1C013233
:105910002418361875E75B23722223707423637092
:10592000A270E37175226523E27023726E226423F4
:105930002271637263225D236271A37261220D235F
:10594000A271E3720A22637300232273A373301CD3
:1059500001E00126704203B01CBC90469946A24665
:1059600070BDC04610B50C1C131C9621221CFFF7FD
:1059700039FF10BD10B5A6B0041C6846FFF7F2FF52
:105980006846211C00F02EF826B010BD08B50A1C90
:105990000349031C09688868191CFFF7EBFF08BD61
:1059A000880500200FB407B504A908C9181C019187
:1059B000FFF7ECFF03B008BC04B0184710B5084B64
:1059C000041C1B689A68914202D0DB68994204D19A
:1059D000E0B2FFF7DFFD201C01E00120404210BDD6
:1059E0008805002070B5051C0E1C041C2078631B64
:1059F000002807D0311CFFF7E1FF031C421C01D037
:105A00000134F3E7181C70BD80B500AF044A054BA4
:105A1000D25C01231340DBB2181CBD4680BDC046DA
:105A2000B00A0020AC04000080B582B000AF021CB8
:105A3000FB1D1A70FB1D1B78002B09D00A4A0B4B6B
:105A4000D35C01221343D9B2074A084BD15408E072
:105A5000054A064BD35C01229343D9B2024A034B59
:105A6000D154BD4602B080BDB00A0020AC04000095
:105A700090B585B000AF021CFB1D1A700023BB60FF
:105A80003C4B9A6821230021D1543A4B181C002129
:105A900004F0B2FE374B9A68F91D21230978D154DE
:105AA0003C1C0E343B1C0833181CFDF7E7FB031CA1
:105AB0002380BB68002B4CD03B1C0E331B88002B73
:105AC00047D02C4B181C04F067FA2A4B181C03F023
:105AD00011FFBA6827493B1C0E331B88081C111C98
